:1000000094C00000A2C00000A0C000009EC000007C
:100010009CC000009AC0000098C0000096C000007C
:1000200094C0000092C0000087C3000050C40000CC
:100030008CC000008AC0000088C0000086C000009C
:1000400084C0000082C0000080C000007EC00000AC
:100050007CC000007AC0000078C0000076C00000BC
:1000600074C0000072C0000070C000006EC00000CC
:100070006CC000006AC0000068C0000066C00000DC
:1000800064C0000062C0000060C000005EC00000EC
:100090005CC000005AC0000058C0000056C00000FC
:1000A00054C0000052C0000050C000002C034C009F
:1000B0005500460041002000420075006C006B00B6
:1000C0002000560065006E0064006F007200200082
:1000D000440065006D006F000000180344006500D7
:1000E00061006E002000430061006D006500720039
:1000F00061000000040309040902200001010080DE
:10010000320904000002FFFFFF00070583024000E0
:100110000507050402400005120110010000000857
:10012000EB036C2001000102DC0111241FBECFEFA4
:10013000DAE0DEBFCDBF11E0A0E0B1E001C01D926A
:10014000AD30B107E1F71ED083C55ACF9EB19F7B7A
:10015000982B9EB9089584B7877F84BF88E10FB636
:10016000F89480936000109260000FBE90E080E8E9
:100170000FB6F89480936100909361000FBE6E9A61
:100180007698BDC2CF93DF93CDB7DEB7C054D10907
:100190000FB6F894DEBF0FBECDBFDDDF80E4D6DF43
:1001A000789480E4E82E8E010F5F1F4F94E0D92EE3
:1001B00023E0F22E31D5F8018E2D11928A95E9F7C0
:1001C000D092E9008091E80082FFF4CF40E050E057
:1001D00060E470E0C801B5D08091E8008B7780932F
:1001E000E800F092E90040E050E060E470E0C8010F
:1001F0005BD08091E8008E778093E800DBCF80E0D1
:10020000A5CF80E4A3CFCF9342E361E883E0ADD1F3
:10021000C82F42E360E884E0A8D1882321F0CC23F2
:1002200011F080E001C080E4CF9190CF0895292F94
:1002300033272230310539F02330310549F02130A0
:10024000310521F128C0E0E2F0E088EF90E027C01E
:1002500099278130910561F08230910581F0892BD9
:10026000D1F4E4EFF0E0E491F0E084EF90E017C027
:10027000EAEDF0E0E491F0E08AED90E010C0ECEA05
:10028000F0E0E491F0E08CEA90E009C0E2E1F0E017
:1002900088E191E004C0E0E0F0E080E090E0DA0185
:1002A0008D939C93CF010895BF92CF92DF92EF92EE
:1002B000FF920F931F93CF93DF937C018B01EA0191
:1002C000ACD1B82E811132C0209731F0288139810C
:1002D000021B130BE20EF31EC12CD12C22C0809105
:1002E000E80085FD14C08091E8008E778093E800D7
:1002F000209749F0888199818C0D9D1D9983888371
:1003000025E0B22E13C089D1882359F00EC0F70121
:1003100081917F018093F10001501109FFEFCF1A05
:10032000DF0A01151105D9F601C0B82E8B2DDF911A
:10033000CF911F910F91FF90EF90DF90CF90BF90E2
:100340000895BF92CF92DF92EF92FF920F931F9387
:10035000CF93DF937C018B01EA015FD1B82E81112D
:1003600032C0209731F028813981021B130BE20E35
:10037000F31EC12CD12C22C08091E80085FD14C051
:100380008091E8008B778093E800209749F088817E
:1003900099818C0D9D1D9983888345E0B42E13C0EF
:1003A0003CD1882359F00EC08091F100F701819370
:1003B0007F0101501109FFEFCF1ADF0A0115110566
:1003C000D9F601C0B82E8B2DDF91CF911F910F91DF
:1003D000FF90EF90DF90CF90BF90089540910B0178
:1003E00050910C014617570748F06115710539F413
:1003F0004091E8004E774093E80001C0BA01FC014B
:1004000040E033C080910401882309F444C0853062
:1004100009F443C08091E80083FD41C08091E80069
:1004200082FD33C08091E80080FF1FC09091F300EF
:100430008091F200392F20E0A901482BCA0106C0A3
:1004400041914093F1006150710901966115710568
:1004500019F088309105A0F341E0089709F040E0D9
:100460008091E8008E778093E8006115710551F660
:100470004111C8CF0AC080910401882361F0853002
:1004800061F08091E80083FD0AC08091E80082FF5E
:10049000F2CF80E0089582E0089583E0089581E03E
:1004A000089540910B0150910C014617570748F0F1
:1004B0006115710539F44091E8004E774093E800EA
:1004C00001C0BA01FC0140E034C0809104018823DE
:1004D00009F445C0853009F444C08091E80083FDEB
:1004E00042C08091E80082FD34C08091E80080FF26
:1004F00020C09091F3008091F200392F20E0A901F3
:10050000482BCA0107C044914093F10031966150D5
:10051000710901966115710519F08830910598F3FC
:1005200041E0089709F040E08091E8008E778093E1
:10053000E8006115710549F64111C7CF0AC08091E5
:100540000401882361F0853061F08091E80083FD2B
:100550000AC08091E80082FFF2CF80E0089582E037
:10056000089583E0089581E00895982F2CC090931A
:10057000E900981739F07091EC002091ED0050914E
:10058000F00003C0242F762F50E021FD02C09F5FB2
:100590001AC03091EB003E7F3093EB003091ED00BC
:1005A0003D7F3093ED003091EB0031603093EB00F4
:1005B0007093EC002093ED005093F0002091EE003A
:1005C00027FDE5CF07C0973090F28F708093E90048
:1005D00081E0089580E008958091050187FD05C0C0
:1005E0008091E80080FF0EC012C08091E80082FD7B
:1005F00005C0809104018111F8CF08958091E80031
:100600008B7708C0809104018111EACF0895809111
:10061000E8008E778093E80008958091E40090913F
:10062000E50045E62091EC0020FD1FC023C020918D
:100630000401222391F0253091F02091EB0025FD5B
:1006400010C02091E4003091E5002817390751F3DC
:100650004150C90139F784E0089582E0089583E0AC
:10066000089581E0089580E008952091E80020FF3A
:10067000DECFF9CF2091E80022FFD9CFF4CF0F933E
:100680001F93CF93DF934BD052D0C8EDD0E0888139
:100690008F77888388818068888388818F7D88832D
:1006A00019BC1092040110920001109202011092E4
:1006B000010100EE10E0F80180818B7F808388814A
:1006C0008160888342E060E080E04FDFE1EEF0E0AF
:1006D00080818E7F8083E2EEF0E080818160808384
:1006E000808188608083F80180818E7F808388810B
:1006F00080618883DF91CF911F910F910895E8ED7C
:10070000F0E080818F7E8083E7EDF0E08081816082
:10071000808384E082BF81E080930301B0CFE8ED65
:10072000F0E080818E7F80831092E2000895109225
:10073000DA001092E10008951F920F920FB60F9207
:1007400011242F933F934F935F936F937F938F93D6
:100750009F93AF93BF93EF93FF938091E10082FF4C
:100760000AC08091E20082FF06C08091E1008B7F89
:100770008093E10050D28091DA0080FF1DC080910B
:10078000D80080FF19C08091DA008E7F8093DA0054
:100790008091D90080FF0CC080E189BD82E189BDD4
:1007A00009B400FEFDCF81E08093040128DD04C080
:1007B00019BC1092040125DD8091E10080FF18C072
:1007C0008091E20080FF14C08091E2008E7F8093D0
:1007D000E2008091E20080618093E2008091D80085
:1007E00080628093D80019BC85E08093040113D205
:1007F0008091E10084FF2FC08091E20084FF2BC034
:1008000080E189BD82E189BD09B400FEFDCF809100
:10081000D8008F7D8093D8008091E1008F7E8093F7
:10082000E1008091E2008F7E8093E2008091E200FF
:1008300081608093E20080910001882311F084E0C0
:1008400007C08091E30087FF02C083E001C081E020
:1008500080930401E0D18091E10083FF27C0809163
:10086000E20083FF23C08091E100877F8093E10055
:1008700082E080930401109200018091E1008E7F5C
:100880008093E1008091E2008E7F8093E20080916E
:10089000E20080618093E20042E060E080E065DE9B
:1008A0008091F00088608093F000B5D1FF91EF91C6
:1008B000BF91AF919F918F917F916F915F914F9178
:1008C0003F912F910F900FBE0F901F9018951F9280
:1008D0000F920FB60F9211242F933F934F935F9374
:1008E0006F937F938F939F93AF93BF93CF93EF9328
:1008F000FF938091E9008F709091EC0090FF02C00F
:1009000090E801C090E0C92FC82B1092E9008091B7
:10091000F000877F8093F00078941CD01092E9005B
:100920008091F00088608093F000CF70C093E90060
:10093000FF91EF91CF91BF91AF919F918F917F9157
:100940006F915F914F913F912F910F900FBE0F903C
:100950001F9018951F93CF93DF93CDB7DEB7AC9759
:100960000FB6F894DEBF0FBECDBFE5E0F1E0809199
:10097000F100819321E0ED30F207C9F757DC809157
:10098000E80083FF30C18091050190910601953008
:1009900009F487C038F49130B1F170F0933009F068
:1009A00022C131C0983009F4F3C0993009F4FFC076
:1009B000963009F018C19BC0803821F0823809F0C8
:1009C00012C108C08091010190910201992389F020
:1009D00082600FC08091090190910A018F70992760
:1009E0008093E9008091EB0085FB882780F91092C5
:1009F000E9009091E800977F9093E8008093F100E0
:100A00001092F100D0C0882319F0823009F0EBC0B9
:100A10008F7121F0823009F0E6C00BC08091070190
:100A2000813009F0E0C0933009F080E0809302014A
:100A30002FC08091070181112BC0809109019091F5
:100A40000A018F709927009709F4CDC08093E900BF
:100A50002091EB0020FF1CC020910601233021F4DF
:100A60008091EB00806212C09091EB0090619093B6
:100A7000EB0021E030E001C0220F8A95EAF72093D5
:100A8000EA001092EA008091EB0088608093EB000E
:100A90001092E9008091E800877F8093E8009CDD58
:100AA000A2C08111A0C080910701909108018F77A9
:100AB0009927182F9091E3009078982B9093E3005A
:100AC0008091E800877F8093E80086DD8091E800D0
:100AD00080FFFCCF8091E30080688093E3001123C6
:100AE00011F083E001C082E0809304017CC0805853
:100AF000823008F078C080910701909108018C3D08
:100B000023E0920771F583E08A838AE289834FB7F5
:100B1000F894DE01139620E03EE051E2E32FF0E08E
:100B200050935700E49120FF03C0E295EF703F5FC0
:100B3000EF708E2F90E0EA3010F0C79601C0C0969B
:100B40008D939D932F5F243149F74FBF8091E8002B
:100B5000877F8093E8006AE270E0CE0101963EDC78
:100B600011C0AE01455D5F4F6091090160DB0097E8
:100B7000D1F12091E800277F2093E800BC018BA5EC
:100B80009CA58FDC8091E8008B778093E8002BC0D8
:100B9000803849F58091E800877F8093E800809154
:100BA00000018093F1008091E8008E7776CF81116B
:100BB0001AC0909107019230B0F48091E800877FCD
:100BC0008093E8009093000107DD8091000181117E
:100BD00004C08091E30087FF02C084E001C081E08F
:100BE0008093040110DB8091E80083FF0AC08091AC
:100BF000E800877F8093E8008091EB00806280931B
:100C0000EB00AC960FB6F894DEBF0FBECDBFDF9100
:100C1000CF911F9108950895CF9380910401882367
:100C2000A9F08091E9008F709091EC0090FF02C0D4
:100C300090E801C090E0C92FC82B1092E900809184
:100C4000E80083FD87DECF70C093E900CF9108955F
:040C5000F894FFCF46
:00000001FF
